:100000000C9404010C9439010C946A010C949B012A
:100010000C94CC010C94FD010C942E020C945F0204
:100020000C9490020C9430010C9430010C9430012B
:100030000C9430010C943B080C9430010C9430016A
:100040000C9430010C9430010C9430010C9430016C
:100050000C9430010C9430010C9430010C94690321
:100060000C9430010C9413040C9430010C94300166
:100070000C9430010C9430010C9430010C9430013C
:100080000C9430010C9430010C9430010C9430012C
:100090000C9448040C9430010C9430010C94300101
:1000A0000C9430010C9430010C9430010C9430010C
:1000B0000C9430010C9430010C9430010C943001FC
:1000C0000C9430010C9430010C9430010C947D049C
:1000D0000C9430010C9430010C94B2040C94300157
:1000E0000C94300100002100240027002A002D007C
:1000F0003000330001010000040107010A01000083
:100100002200250028002B002E00310034000201BF
:100110000000050108010B0100002000230026005B
:1001200029002C002F00320000010000030106010D
:10013000090105050505070508080808020202026D
:100140000A0A080804040404010101010101010173
:100150000303030303030303040707070C0C0C0C3E
:100160000C0C0C0C02020202060606060606060627
:100170000B0B0B0B0B0B0B0B0102102020080810B4
:100180002040102040800201020108040201010207
:1001900004081020408080402010080402018004E0
:1001A000020180402010080402010804020101023B
:1001B0000408102040800102040810204080000044
:1001C000090A02080B0C0D070603040100000000D9
:1001D000000000000000000000000000000000001F
:1001E00000000000000000000000100F0E000000E2
:1001F00000000000000000000000000000000000FF
:10020000000000000200B20511241FBECFEFD1E2B2
:10021000DEBFCDBF00E00CBF12E0A0E0B2E0EAEF2D
:10022000F3E100E00BBF02C007900D92AE31B107C1
:10023000D9F714E0AEE1B2E001C01D92AC3BB107CA
:10024000E1F712E0C8E0D2E004C02297FE010E946C
:10025000D109C630D107C9F70E9432010C94FB09BD
:100260000C9400000E94B1030E9489090E94AE080C
:10027000FDCF1F920F920FB60F920BB60F92112463
:100280002F933F934F935F936F937F938F939F939E
:10029000AF93BF93EF93FF9380912202909123023B
:1002A000892B29F0E0912202F09123021995FF9108
:1002B000EF91BF91AF919F918F917F916F915F91DE
:1002C0004F913F912F910F900BBE0F900FBE0F904B
:1002D0001F9018951F920F920FB60F920BB60F92A8
:1002E00011242F933F934F935F936F937F938F933B
:1002F0009F93AF93BF93EF93FF93809124029091CC
:100300002502892B29F0E0912402F091250219950C
:10031000FF91EF91BF91AF919F918F917F916F91DD
:100320005F914F913F912F910F900BBE0F900FBE99
:100330000F901F9018951F920F920FB60F920BB649
:100340000F9211242F933F934F935F936F937F935B
:100350008F939F93AF93BF93EF93FF938091260268
:1003600090912702892B29F0E0912602F091270233
:100370001995FF91EF91BF91AF919F918F917F91CF
:100380006F915F914F913F912F910F900BBE0F9006
:100390000FBE0F901F9018951F920F920FB60F92DD
:1003A0000BB60F9211242F933F934F935F936F934C
:1003B0007F938F939F93AF93BF93EF93FF9380911E
:1003C000280290912902892B29F0E0912802F091CE
:1003D00029021995FF91EF91BF91AF919F918F9154
:1003E0007F916F915F914F913F912F910F900BBE35
:1003F0000F900FBE0F901F9018951F920F920FB67F
:100400000F920BB60F9211242F933F934F935F934C
:100410006F937F938F939F93AF93BF93EF93FF93CC
:1004200080911E0290911F02892B29F0E0911E02FB
:10043000F0911F021995FF91EF91BF91AF919F919C
:100440008F917F916F915F914F913F912F910F907D
:100450000BBE0F900FBE0F901F9018951F920F921A
:100460000FB60F920BB60F9211242F933F934F9319
:100470005F936F937F938F939F93AF93BF93EF930C
:10048000FF938091200290912102892B29F0E09125
:100490002002F09121021995FF91EF91BF91AF9148
:1004A0009F918F917F916F915F914F913F912F918C
:1004B0000F900BBE0F900FBE0F901F9018951F92BC
:1004C0000F920FB60F920BB60F9211242F933F93FA
:1004D0004F935F936F937F938F939F93AF93BF934C
:1004E000EF93FF9380912A0290912B02892B29F0A0
:1004F000E0912A02F0912B021995FF91EF91BF91A3
:10050000AF919F918F917F916F915F914F913F91AB
:100510002F910F900BBE0F900FBE0F901F9018954C
:100520001F920F920FB60F920BB60F9211242F93BA
:100530003F934F935F936F937F938F939F93AF936B
:10054000BF93EF93FF9380912C0290912D02892B02
:1005500029F0E0912C02F0912D021995FF91EF9175
:10056000BF91AF919F918F917F916F915F914F91CB
:100570003F912F910F900BBE0F900FBE0F901F90C9
:100580001895893009F448C08A30A0F4843049F1C4
:10059000853040F4823071F18330F8F4813009F015
:1005A00062C025C0873071F1883090F5863009F03F
:1005B0005AC024C08D3009F441C08E3028F48B30ED
:1005C000A9F18C30B8F52CC08F3009F441C08F30C0
:1005D000D8F1803109F047C041C0809180008F7709
:1005E00003C0809180008F7D80938000089584B542
:1005F0008F7702C084B58F7D84BD08958091B0004F
:100600008F7703C08091B0008F7D8093B0000895F4
:10061000809190008F7707C0809190008F7D03C0FC
:1006200080919000877F8093900008958091A00032
:100630008F7707C08091A0008F7D03C08091A000BC
:10064000877F8093A0000895809120018F7703C059
:10065000809120018F7D8093200108958091200159
:10066000877F809320010895FF920F931F93F62EAA
:10067000482F50E0CA0182549E4FFC012491CA01C8
:1006800088589E4FFC0114914E5C5E4FFA01049114
:100690000023D9F0222319F0822F0E94C102E02FFB
:1006A000F0E0EE0FFF1FE250FF4FA591B491FF2045
:1006B00031F49FB7F8948C911095812304C09FB7B3
:1006C000F8948C91812B8C939FBF1F910F91FF9079
:1006D00008951F920F920FB60F9211242F933F93FC
:1006E0008F939F93AF93BF93809132029091330287
:1006F000A0913402B0913502309136020196A11DCD
:10070000B11D232F2D5F2D3720F02D570196A11DF0
:10071000B11D209336028093320290933302A0934E
:100720003402B093350280912E0290912F02A09155
:100730003002B09131020196A11DB11D80932E02AD
:1007400090932F02A0933002B0933102BF91AF91EA
:100750009F918F913F912F910F900FBE0F901F90FF
:100760001895789484B5826084BD84B5816084BD19
:1007700085B5826085BD85B5816085BDEEE6F0E01A
:10078000808181608083E1E8F0E010828081826076
:100790008083808181608083E0E8F0E080818160F7
:1007A0008083E1EBF0E0808184608083E0EBF0E027
:1007B000808181608083E1E9F0E0808182608083D4
:1007C000808181608083E0E9F0E0808181608083C6
:1007D000E1EAF0E0808182608083808181608083B3
:1007E000E0EAF0E0808181608083E1E2F1E08081F5
:1007F00082608083808181608083E0E2F1E080819B
:1008000081608083EAE7F0E080818460808380817A
:100810008260808380818160808380818068808322
:100820001092C10008951F920F920FB60F920BB64F
:100830000F9211242F933F934F938F939F93EF9396
:10084000FF934091C600E091B702F091B802319653
:100850009F012F77307031978091B9029091BA0241
:100860002817390739F0E95CFD4F40833093B8020F
:100870002093B702FF91EF919F918F914F913F91FC
:100880002F910F900BBE0F900FBE0F901F901895D9
:100890001F920F920FB60F920BB60F9211242F9347
:1008A0003F934F938F939F93EF93FF934091CE008D
:1008B000E0913B03F0913C0331969F012F7730701C
:1008C000319780913D0390913E032817390739F005
:1008D000E554FD4F408330933C0320933B03FF914D
:1008E000EF919F918F914F913F912F910F900BBE60
:1008F0000F900FBE0F901F9018951F920F920FB67A
:100900000F920BB60F9211242F933F934F938F9317
:100910009F93EF93FF934091D600E091BF03F09136
:10092000C00331969F012F77307031978091C103BA
:100930009091C2032817390739F0E15CFC4F4083DE
:100940003093C0032093BF03FF91EF919F918F914C
:100950004F913F912F910F900BBE0F900FBE0F90B4
:100960001F9018951F920F920FB60F920BB60F9211
:1009700011242F933F934F938F939F93EF93FF9364
:1009800040913601E0914304F091440431969F0177
:100990002F77307031978091450490914604281745
:1009A000390739F0ED53FC4F4083309344042093D2
:1009B0004304FF91EF919F918F914F913F912F9120
:1009C0000F900BBE0F900FBE0F901F901895CF93F6
:1009D000DF93EC019A01AB01E885F985203081EEC7
:1009E000380780E0480780E0580709F449C081E0F3
:1009F00090E00A8802C0880F991F0A94E2F780836A
:100A000060E079E08DE390E00E94B409215030402D
:100A100040405040CA01B90122E030E040E050E0DF
:100A20000E94B409EC81FD813083EE81FF81208337
:100A3000EA85FB85208141E050E0CA010E8402C0B6
:100A4000880F991F0A94E2F7282B2083EA85FB85FB
:100A50002081CA010F8402C0880F991F0A94E2F70F
:100A6000282B2083EA85FB858081088802C0440FFB
:100A7000551F0A94E2F7842B8083DF91CF9108956C
:100A8000108220E130E0CECFDC011296ED91FC9196
:100A90001397E058FF4F2191319180819181281B5C
:100AA000390B2F773070C9010895DC011296ED9152
:100AB000FC911397EE57FF4F2081318192918291E3
:100AC000E058F0408217930719F42FEF3FEF05C06D
:100AD000E20FF31F8081282F30E0C9010895DC0167
:100AE0001296ED91FC911397DF01AE57BF4F2D91F8
:100AF0003C911197E058FF4F80819181E058F04080
:100B00008217930719F42FEF3FEF0BC0E20FF31F8B
:100B100080812F5F3F4F2F7730702D933C93282F8C
:100B200030E0C9010895DC011296ED91FC91139714
:100B3000EE57FF4F80819181929382930895FC013B
:100B4000A085B18521898C9190E0022E02C09595F7
:100B500087950A94E2F780FFF6CF0484F585E02DAF
:100B6000608308952FE032E03093480420934704D7
:100B700087E392E090934A048093490485EC90E0E7
:100B800090934C0480934B0484EC90E090934E043B
:100B900080934D0480EC90E09093500480934F0438
:100BA00081EC90E0909352048093510486EC90E0A5
:100BB0009093540480935304E4E0E093550473E06D
:100BC0007093560467E06093570455E050935804BF
:100BD00041E04093590430935B0420935A048BEB1B
:100BE00092E090935D0480935C048DEC90E0909390
:100BF0005F0480935E048CEC90E09093610480939A
:100C0000600488EC90E0909363048093620489EC24
:100C100090E090936504809364048EEC90E0909350
:100C2000670480936604E09368047093690460939A
:100C30006A0450936B0440936C0430936E042093C9
:100C40006D048FE393E09093700480936F0485EDBF
:100C500090E0909372048093710484ED90E09093FF
:100C600074048093730480ED90E0909376048093F5
:100C7000750481ED90E0909378048093770486ED7D
:100C800090E090937A0480937904E0937B047093CE
:100C90007C0460937D0450937E0440937F043093E2
:100CA00081042093800483EC93E0909383048093E9
:100CB000820485E391E0909385048093840484E327
:100CC00091E0909387048093860480E391E0909371
:100CD00089048093880481E391E090938B0480934E
:100CE0008A0486E391E090938D0480938C04E093D2
:100CF0008E0470938F0460939004509391044093FA
:100D0000920408950F931F93CF93DF938C01EB010F
:100D100009C02196D801ED91FC910190F081E02D60
:100D2000C801199568816623A1F7DF91CF911F91C2
:100D30000F910895EF92FF920F931F93CF93DF933C
:100D40008C017B01EA010CC0D7016D917D01D801B6
:100D5000ED91FC910190F081E02DC801199521974A
:100D6000209791F7DF91CF911F910F91FF90EF9016
:100D70000895DC01ED91FC910280F381E02D19953D
:100D800008952F923F924F925F926F927F928F922F
:100D90009F92AF92BF92CF92DF92EF92FF920F930A
:100DA0001F93DF93CF93CDB7DEB7A0970FB6F8941C
:100DB000DEBF0FBECDBF1C016A017B01411551058D
:100DC0006105710549F440E350E060E070E020E027
:100DD00030E00E94590754C0882499245401422EBF
:100DE00055246624772401E010E00C0F1D1F080D28
:100DF000191DC701B601A30192010E949209F801D1
:100E000060830894811C911CA11CB11CC701B60110
:100E1000A30192010E949209C901DA016C017D01CE
:100E2000C114D104E104F104F1F681E0E82EF12CC3
:100E3000EC0EFD1EE80CF91C3E010894611C711CAF
:100E4000D501C4010197A109B1096C01C818D908DD
:100E500014C0F601EE0DFF1D40814A3010F4405DD4
:100E600001C0495C50E060E070E0C10120E030E08A
:100E70000E9459070894E108F1086E147F0449F7AD
:100E8000A0960FB6F894DEBF0FBECDBFCF91DF9115
:100E90001F910F91FF90EF90DF90CF90BF90AF9098
:100EA0009F908F907F906F905F904F903F902F908A
:100EB0000895EF92FF920F931F93CF93DF93EC016E
:100EC0007A018B012115310541F4E881F981019006
:100ED000F081E02D642F19951BC02A303105B1F443
:100EE00077FF10C04DE250E060E070E020E030E0BD
:100EF0000E94590710950095F094E094E11CF11CB4
:100F0000011D111DCE01B801A7012AE00E94C106F2
:100F1000DF91CF911F910F91FF90EF900895EF9285
:100F2000FF920F931F937B019A010027F7FC009516
:100F3000102FB801A7010E9459071F910F91FF9030
:100F4000EF900895EF92FF920F931F939A01E62E70
:100F5000FF2400E010E0B801A7010E9459071F918B
:100F60000F91FF90EF9008950F931F938C014DE028
:100F700050E060E070E020E030E00E945907C801D6
:100F80004AE050E060E070E020E030E00E94590765
:100F90001F910F9108950F931F938C010E94B90622
:100FA000C8010E94B4071F910F910895CF92DF925C
:100FB000EF92FF920F931F938C016B019A01EE2425
:100FC000D7FCE094FE2CB701A6010E945907C80186
:100FD0000E94B4071F910F91FF90EF90DF90CF9088
:100FE00008958230B9F0833028F4882351F081309D
:100FF00051F50AC0843011F18430E8F0853019F5DC
:1010000020C010926E00089580916F008D7F8093B4
:101010006F000895809170008D7F8093700081E053
:101020008093B0008091B100887F84608093B1008C
:101030001092B300089510927100089510927200FA
:1010400008951092730008951F93182F80910A023B
:10105000811711F09FEF06C0E4E0F2E094918FEF6A
:1010600080930A02892F0E94F107812F60E00E947D
:1010700034031F9108951F920F920FB60F920BB673
:101080000F9211242F933F934F935F936F937F930E
:101090008F939F93AF93BF93EF93FF9380919304AC
:1010A00090919404A0919504B09196040097A105A5
:1010B000B10551F1E0919704F091980480819091ED
:1010C0009904892780838091930490919404A0913E
:1010D0009504B0919604181619061A061B06C4F456
:1010E0008091930490919404A0919504B0919604FA
:1010F0000197A109B1098093930490939404A0935C
:101100009504B093960404C080910A020E942408BA
:10111000FF91EF91BF91AF919F918F917F916F91CF
:101120005F914F913F912F910F900BBE0F900FBE8B
:101130000F901F9018956115710531F061307105A0
:1011400041F460E072E002C065E072E00E942709AD
:1011500008956FEF7FEF0E9457090895EF92FF9275
:101160000F931F93CF93DF9387E494E00E9444058D
:101170007C01C0E0D0E060C087E494E00E946F058D
:101180008A30910509F1A0919A04B0919B048E32A6
:10119000910509F047C0AE54BB4F1C9200919C04CE
:1011A00010919D0482EB94E00E94D509F801EE0FA6
:1011B000FF1FE256FB4F918380830F5F1F4F1093F9
:1011C0009D0400939C0429C0E0919A04F0919B0433
:1011D000EE54FB4F108200919C0410919D0482EB11
:1011E00094E00E94D509F801EE0FFF1FE256FB4F75
:1011F000918380836091A2047091A30402501040F7
:101200008091A0049091A10444EA54E098010E94C6
:101210009B0810929D0410929C0410929B041092C3
:101220009A0409C0FD01EE54FB4F80831196B093E0
:101230009B04A0939A042196CE15DF050CF49CCF55
:10124000DF91CF911F910F91FF90EF900895CF9272
:10125000DF92EF92FF920F931F938C016B0157E483
:10126000E52E54E0F52EC7016FEF7FEF4AE050E026
:101270000E948F07C7016EE240E050E00E94A20783
:10128000C701B8014AE050E00E948F07C7016EE233
:1012900040E050E00E94A207C701B6010E94CB07C0
:1012A0001F910F91FF90EF90DF90CF900895CF9214
:1012B000DF92EF92FF920F931F938C016B01E7E493
:1012C000EE2EE4E0FE2EC7016FEF7FEF4AE050E024
:1012D0000E948F07C7016EE240E050E00E94A20723
:1012E000C701B8014AE050E00E948F07C7016EE2D3
:1012F00040E050E00E94A207C701B6014AE050E07A
:101300000E94D6071F910F91FF90EF90DF90CF9032
:10131000089587E494E040E052EC61E070E00E94C0
:10132000E7040895A1E21A2EAA1BBB1BFD010DC004
:10133000AA1FBB1FEE1FFF1FA217B307E407F50785
:1013400020F0A21BB30BE40BF50B661F771F881F61
:10135000991F1A9469F760957095809590959B01F7
:10136000AC01BD01CF01089597FB092E05260ED0D3
:1013700057FD04D0D7DF0AD0001C38F450954095B3
:10138000309521953F4F4F4F5F4F0895F6F7909559
:101390008095709561957F4F8F4F9F4F0895EE0F09
:1013A000FF1F0590F491E02D1994FC0188279927DF
:1013B000E89421912032E9F3293010F02E30C8F35F
:1013C0002B3241F02D3239F4689404C00E94F309A5
:1013D000820F911D219120532A30C0F31EF4909565
:1013E00081959F4F08957AE0979F902D879F802D3C
:0A13F000910D11240895F894FFCF29
:1013FA00506F6E67007465737400FF000000009FF1
:0E140A000582069A0644056F055505930500F8
:00000001FF
